:020000040800F2
:1000000000500020D504000895040008970400085B
:10001000990400089B0400089D04000800000000EB
:100020000000000000000000000000009F04000825
:10003000A104000800000000A3040008A5040008B3
:100040001D0500081D0500081D0500081D05000808
:100050001D0500081D0500081D0500081D050008F8
:100060001D0500081D0500081D0500081D050008E8
:100070001D0500081D0500081D0500081D050008D8
:100080001D0500081D0500081D0500081D050008C8
:100090001D0500081D0500081D0500081D050008B8
:1000A0001D0500081D0500081D0500081D050008A8
:1000B0001D0500081D0500081D0500081D05000898
:1000C0001D0500081D0500081D0500081D05000888
:1000D0001D0500081D0500081D0500081D05000878
:1000E000AD0400081D0500081D0500080000000003
:1000F0000000000000000000000000000000000000
:0C01000000000000000000005FF808F1A3
:10010C000348044B834202D0034B03B1184770479A
:10011C003C0400203C040020000000000548064977
:10012C000B1AD90F01EBA301491002D0034B03B1F9
:10013C00184770473C0400203C04002000000000DD
:10014C0010B5064C237843B9FFF7DAFF044B13B113
:10015C000448AFF300800123237010BD3C04002041
:10016C0000000000300F000808B5044B1BB1044917
:10017C000448AFF30080BDE80840CFE70000000062
:10018C0040040020300F0008002301461A46184690
:10019C0000F03EB838B50A4C0A4D641BA4100AD0C6
:1001AC0004F18043013B05EB8305013C55F8043910
:1001BC009847002CF9D1BDE8384000F0B9BE00BF1B
:1001CC007C0F0008780F000870B50D4E0D4D761B96
:1001DC00B61006D00024013455F8043B9847A642CB
:1001EC00F9D1094E094D00F09DFE761BB61006D0D4
:1001FC000024013455F8043B9847A642F9D170BD50
:10020C00700F0008700F0008780F0008700F0008BE
:10021C00F0B4174C2568D5F848410CB365681F2D10
:10022C0023DC38B900206B1C0235636044F82510C0
:10023C00F0BC7047012604EB850CCCF88820D4F870
:10024C00887106FA05F217430228C4F88871CCF8B5
:10025C000831E7D1D4F88C311A43C4F88C21E1E78A
:10026C0005F5A674C5F84841D8E74FF0FF30DFE735
:10027C00480F000870B588B00024049405940694C7
:10028C000794264B9A6942F010029A619A6902F01F
:10029C0010020092009A9A6942F020029A619A69BF
:1002AC0002F020020192019A9A6942F008029A61C6
:1002BC009A6902F008020292029A9A6942F00402C8
:1002CC009A619B6903F004030393039B144E22462B
:1002DC004FF40051304600F0FCFA4FF400530493F5
:1002EC000123059306940225079504A9304600F0D6
:1002FC00D9F94FF4704304930A4B0593069504A95E
:10030C00094800F0CFF922462146282000F072F966
:10031C00282000F0A3F908B070BD00BF0010024007
:10032C000010014000002110000C014008B5B0F590
:10033C00805F04D0B0F5005F18D000BF08BD014647
:10034C0000F1804000F5803000F0BCFA012806D0A6
:10035C0000224FF40051114800F0BBFAEEE70122E5
:10036C004FF400510D4800F0B4FAE7E7014600F1F4
:10037C00804000F5704000F0A5FA012806D000225C
:10038C004FF40051054800F0A4FAD7E701224FF4CE
:10039C000051024800F09DFAD0E700BF0010014068
:1003AC0072B6FEE700B591B0002309930B930C9342
:1003BC0001930293039304930593012106914FF447
:1003CC008032079208930A9102230D930E924FF4F8
:1003DC00E0130F9306A800F0A7FA80B90F2301933E
:1003EC0002210291002303934FF48062049205933F
:1003FC0001A800F0D7FC20B911B05DF804FBFFF7A1
:10040C00CFFFFFF7CDFF000008B500F0A9F8FFF70C
:10041C00C9FFFFF72FFF0A4C01224FF40051204671
:10042C0000F057FAC82000F0BFF800224FF400513A
:10043C00204600F04EFAC82000F0B6F8EBE700BFFB
:10044C000010014082B00E4B9A6942F001029A6191
:10045C009A6902F001020092009ADA6942F0805225
:10046C00DA61DB6903F080530193019B054A536801
:10047C0023F0E06343F00073536002B0704700BF99
:10048C000010024000000140FEE7FEE7FEE7FEE739
:10049C00FEE770477047704708B500F073F808BD69
:1004AC0008B54FF4805000F01BFA4FF4005000F0E8
:1004BC0017FA4FF4804000F013FA4FF4004000F0AC
:1004CC000FFA08BD704700000C480D490D4A002377
:1004DC0002E0D458C4500433C4188C42F9D30A4AED
:1004EC000A4C002301E013600432A242FBD3FFF755
:1004FC00E9FFFFF769FEFFF787FF70470000002058
:10050C003C0400207C0F00083C0400205C0400200C
:10051C00FEE7000010B504460E4B18784FF47A73C2
:10052C00B3FBF0F30C4A1068B0FBF3F000F0A4F846
:10053C0068B90F2C01D901200AE0002221464FF0A6
:10054C00FF3000F057F8054B1C60002000E0012044
:10055C0010BD00BF340400203004002038040020FB
:10056C0008B5074A136843F010031360032000F02A
:10057C002FF80F20FFF7CEFFFFF764FF002008BD18
:10058C0000200240034A1168034B1B780B44136094
:10059C00704700BF5804002034040020014B186839
:1005AC00704700BF5804002038B50446FFF7F6FF2B
:1005BC000546B4F1FF3F02D0044B1B781C44FFF7F7
:1005CC00EDFF401BA042FAD338BD00BF340400201D
:1005DC00074AD36823F4E0631B041B0C000200F4ED
:1005EC00E060034343F0BF6343F40033D3607047D0
:1005FC0000ED00E030B4174BDB68C3F30223C3F10A
:10060C000704042C28BF04241D1D062D18D9033BF8
:10061C004FF0FF3505FA04F421EA0401994005FA7C
:10062C0003F322EA0303194300280BDB0901C9B2C7
:10063C0000F1604000F5614080F8001330BC704759
:10064C000023E5E700F00F000901C9B2024B195471
:10065C00F4E700BF00ED00E014ED00E0002807DB3C
:10066C0000F01F02400901239340024A42F8203057
:10067C00704700BF00E100E00138B0F1807F0AD282
:10068C00064B5860064AF02182F82310002098602F
:10069C0007221A6070470120704700BF10E000E08D
:1006AC0000ED00E0F0B482B000252C46A3E07F4FB3
:1006BC00BB4210D007D97E4FBB420CD007F5803718
:1006CC00BB4208D013E0A7F58017BB4203D007F557
:1006DC007027BB4207D18B68002B58D0012B51D00F
:1006EC004261082503E0A7F58017BB42F3D0FF2E2B
:1006FC004FD88446FF2E4FD8A200DCF800300F27CD
:10070C00974023EA070305FA02F21343CCF80030B2
:10071C004B6813F0805F6DD0664B9A6942F0010212
:10072C009A619B6903F001030193019BA208971C3A
:10073C00614B53F8273004F00307BF004FF00F0C48
:10074C000CFA07FC23EA0C0C5C4B98422AD003F5FC
:10075C008063984200F08A8003F58063984200F031
:10076C00878003F5806398421AD004231BE0CD6880
:10077C00BDE7CD680435BAE7CD680835B7E7CD6875
:10078C000C35B4E702610825B1E70025AFE7042575
:10079C00ADE700F1040CADE7A4F108029200ACE760
:1007AC00032300E00023BB4043EA0C030232424F18
:1007BC0047F822304B6813F4803F5BD0404A1368F3
:1007CC00334313604B6813F4003F59D03C4A5368D1
:1007DC00334353604B6813F4801F57D0384A9368E7
:1007EC00334393604B6813F4001F55D0344AD368DD
:1007FC001E43D66001340B6833FA04F252D0012246
:10080C00A24003EA020632EA0303F3D14B68122B2F
:10081C003FF64DAF122B3FF66AAF01A757F823F006
:10082C00E30600087B070008850700089707000807
:10083C00FB060008FB060008FB060008FB06000888
:10084C00FB060008FB060008FB060008FB06000878
:10085C00FB060008FB060008FB060008FB06000868
:10086C00FB0600087F0700088B07000801239AE7A6
:10087C00022398E7124A136823EA06031360A1E7E0
:10088C000F4A536823EA06035360A3E70C4A9368A4
:10089C0023EA06039360A5E7094AD36823EA060610
:1008AC00D660A7E702B0F0BC704700BF0000221072
:1008BC00000031100010024000000140000801400F
:1008CC00000401408368194201D0012070470020C8
:1008DC0070470AB10161704709040161704700005B
:1008EC0008B5054B5B69034200D108BD024B58614A
:1008FC00FFF71CFDF9E700BF0004014082B0084B74
:10090C001B68084AA2FB03235B0A00FB03F3019359
:10091C0000BF019B5A1E0192002BF9D102B0704707
:10092C0030040020D34D6210002800F0F18170B526
:10093C0082B00446036813F0010F2CD0AA4B5B68FD
:10094C0003F00C03042B1DD0A74B5B6803F00C03C6
:10095C00082B12D06368B3F5803F41D0002B55D1E2
:10096C0003F1804303F504331A6822F480321A60D1
:10097C001A6822F480221A6037E09B4B5B6813F4F0
:10098C00803FE7D0984B1B6813F4003F03D063689B
:10099C00002B00F0BF81236813F0020F75D0924B2F
:1009AC005B6813F00C0F5FD08F4B5B6803F00C038C
:1009BC00082B54D02369002B00F089808B4B01222B
:1009CC001A60FFF7EBFD0546874B1B6813F0020F0F
:1009DC0074D1FFF7E3FD401B0228F5D903209EE1FB
:1009EC00814A136843F480331360636843B3FFF7A1
:1009FC00D5FD05467C4B1B6813F4003FCBD1FFF7AC
:100A0C00CDFD401B6428F5D9032088E1B3F5A02F58
:100A1C0009D0754B1A6822F480321A601A6822F4D5
:100A2C0080221A60E1E703F18043A3F53C331A6896
:100A3C0042F480221A601A6842F480321A60D4E7B9
:100A4C00FFF7ACFD0546684B1B6813F4003FA2D0C2
:100A5C00FFF7A4FD401B6428F5D903205FE1624B2E
:100A6C005B6813F4803FA5D15F4B1B6813F0020F3A
:100A7C0003D02369012B40F04F815B4A136823F0AC
:100A8C00F803616943EAC1031360236813F0080F8C
:100A9C0032D0A369002B45D0554B01221A60FFF7C9
:100AAC007DFD0546504B5B6A13F0020F21D1FFF719
:100ABC0075FD401B0228F5D9032030E14A4A136822
:100ACC0023F0F803616943EAC1031360DDE7474B88
:100ADC0000221A60FFF762FD0546434B1B6813F0BA
:100AEC00020FD2D0FFF75AFD401B0228F5D9032084
:100AFC0015E10120FFF702FF236813F0040F00F04B
:100B0C009780394BDB6913F0805F1DD1364BDA6966
:100B1C0042F08052DA61DB6903F080530193019B50
:100B2C00012512E0324B00221A60FFF737FD054613
:100B3C002D4B5B6A13F0020FDED0FFF72FFD401B2D
:100B4C000228F5D90320EAE000252A4B1B6813F490
:100B5C00807F11D0E368012B22D0002B38D103F118
:100B6C00804303F504331A6A22F001021A621A6AEE
:100B7C0022F004021A6218E01E4A136843F48073D0
:100B8C001360FFF70BFD06461A4B1B6813F4807FAE
:100B9C00E0D1FFF703FD801B6428F5D90320BEE0EC
:100BAC00114A136A43F001031362E36873B3FFF74E
:100BBC00F5FC06460C4B1B6A13F0020F37D1FFF7FE
:100BCC00EDFC801B41F288339842F3D90320A6E058
:100BDC00052B11D0044B1A6A22F001021A621A6A10
:100BEC0022F004021A62E0E70010024000004242C8
:100BFC0080044242007000404D4B1A6A42F00402DD
:100C0C001A621A6A42F001021A62CEE7FFF7C6FCBA
:100C1C000646474B1B6A13F0020F08D0FFF7BEFCC9
:100C2C00801B41F288339842F3D9032077E0E5B971
:100C3C00E369002B72D03E4A526802F00C02082A7B
:100C4C0056D0022B17D03B4B00221A60FFF7A6FCA4
:100C5C000446374B1B6813F0007F47D0FFF79EFC10
:100C6C00001B0228F5D9032059E0314AD36923F03F
:100C7C008053D361DCE72F4B00221A60FFF78EFC08
:100C8C0005462B4B1B6813F0007F06D0FFF786FC44
:100C9C00401B0228F5D9032041E0236AB3F5803FBD
:100CAC001AD023494B6823F47413226A606A0243F6
:100CBC0013434B601F4B01221A60FFF76FFC044675
:100CCC001B4B1B6813F0007F0ED1FFF767FC001B5A
:100CDC000228F5D9032022E0154A536823F4003387
:100CEC00A1680B435360DCE7002018E0002016E0FD
:100CFC00012B16D00E4B5B6803F48031226A9142B3
:100D0C0011D103F47013626A93420ED1002006E0F5
:100D1C0001207047012002E0012000E0002002B019
:100D2C0070BD0120FBE70120F9E70120F7E700BFC8
:100D3C00001002406000424286B0164B0FCB0DF102
:100D4C00180C0CE90F0040F20123ADF80430124BE3
:100D5C005B6803F00C02082A02D0104806B07047FA
:100D6C00C3F38342624412F8102C13F4803F0CD06E
:100D7C00094B5B68C3F34043634413F8143C0748C6
:100D8C0000FB02F0B0FBF3F0E8E7054800FB02F0D3
:100D9C00E4E700BF5C0F00080010024000127A006C
:100DAC0000093D00002800F0A08070B50D460446F7
:100DBC00524B1B6803F007038B420BD24F4A13684C
:100DCC0023F007030B431360136803F007038B42F4
:100DDC0040F08D80236813F0020F17D013F0040F2E
:100DEC0004D0474A536843F4E0635360236813F01C
:100DFC00080F04D0424A536843F460535360404A8E
:100E0C00536823F0F003A1680B435360236813F07D
:100E1C00010F31D06368012B20D0022B25D0384A2A
:100E2C00126812F0020F64D035494A6822F00302AE
:100E3C0013434B60FFF7B2FB0646314B5B6803F084
:100E4C000C036268B3EB820F16D0FFF7A7FB801B75
:100E5C0041F288339842F0D9032045E0284A1268C1
:100E6C0012F4003FE0D101203EE0254A126812F056
:100E7C00007FD9D1012037E0204B1B6803F007031A
:100E8C00AB420AD91D4A136823F007032B431360A6
:100E9C00136803F00703AB422DD1236813F0040F42
:100EAC0006D0174A536823F4E063E1680B435360A0
:100EBC00236813F0080F07D0114A536823F46053CA
:100ECC00216943EAC1035360FFF736FF0C4B5B68A3
:100EDC00C3F303130B4AD35CD8400B4B18600B4B7A
:100EEC001868FFF717FB002070BD01207047012028
:100EFC00FAE70120F8E70120F6E700BF00200240E6
:100F0C00001002404C0F0008300400203804002070
:100F1C00024B13B10248FFF737B9704700000000CD
:100F2C00A1010008F8B500BFF8BC08BC9E4670478C
:0C0F3C00F8B500BFF8BC08BC9E4670472A
:100F48000800002000000000000000000102030467
:100F58000607080902030405060708090A0B0C0D11
:080F68000E0F10100000000044
:080F70001D0F000875010008C7
:040F78004D0100081F
:100F7C00080000200000000000000000F402002027
:100F8C005C030020C40300200000000000000000EF
:100F9C000000000000000000000000000000000045
:100FAC000000000000000000000000000000000035
:100FBC000000000000000000000000000000000025
:100FCC000000000000000000000000000000000015
:100FDC000000000000000000000000000000000005
:100FEC0000000000000000000000000000000000F5
:100FFC0000000000000000000000000000000000E5
:10100C0000000000000000000000000000000000D4
:10101C0000000000000000000000000000000000C4
:10102C0001000000000000000E33CDAB34126DE661
:10103C00ECDE05000B0000000000000000000000CA
:10104C000000000000000000000000000000000094
:10105C000000000000000000000000000000000084
:10106C000000000000000000000000000000000074
:10107C000000000000000000000000000000000064
:0C13AC000024F40001000000100000000C
:04000005080004D516
:00000001FF
